{
  "contractName": "PongGame",
  "abi": [
    {
      "anonymous": false,
      "inputs": [
        {
          "indexed": false,
          "internalType": "address",
          "name": "claimant",
          "type": "address"
        },
        {
          "indexed": false,
          "internalType": "uint256",
          "name": "amount",
          "type": "uint256"
        }
      ],
      "name": "FundsClaimed",
      "type": "event"
    },
    {
      "anonymous": false,
      "inputs": [
        {
          "indexed": false,
          "internalType": "uint256",
          "name": "gameId",
          "type": "uint256"
        }
      ],
      "name": "FundsUnlocked",
      "type": "event"
    },
    {
      "anonymous": false,
      "inputs": [
        {
          "indexed": false,
          "internalType": "uint256",
          "name": "gameId",
          "type": "uint256"
        },
        {
          "indexed": false,
          "internalType": "address",
          "name": "winner",
          "type": "address"
        }
      ],
      "name": "GameCompleted",
      "type": "event"
    },
    {
      "anonymous": false,
      "inputs": [
        {
          "indexed": false,
          "internalType": "uint256",
          "name": "gameId",
          "type": "uint256"
        },
        {
          "indexed": false,
          "internalType": "address",
          "name": "player1",
          "type": "address"
        },
        {
          "indexed": false,
          "internalType": "uint256",
          "name": "betAmount",
          "type": "uint256"
        }
      ],
      "name": "GameCreated",
      "type": "event"
    },
    {
      "anonymous": false,
      "inputs": [
        {
          "indexed": false,
          "internalType": "uint256",
          "name": "gameId",
          "type": "uint256"
        },
        {
          "indexed": false,
          "internalType": "address",
          "name": "player2",
          "type": "address"
        }
      ],
      "name": "PlayerJoined",
      "type": "event"
    },
    {
      "inputs": [],
      "name": "gameIdCounter",
      "outputs": [
        {
          "internalType": "uint256",
          "name": "",
          "type": "uint256"
        }
      ],
      "stateMutability": "view",
      "type": "function",
      "constant": true
    },
    {
      "inputs": [
        {
          "internalType": "uint256",
          "name": "",
          "type": "uint256"
        }
      ],
      "name": "games",
      "outputs": [
        {
          "internalType": "address",
          "name": "player1",
          "type": "address"
        },
        {
          "internalType": "address",
          "name": "player2",
          "type": "address"
        },
        {
          "internalType": "uint256",
          "name": "betAmount",
          "type": "uint256"
        },
        {
          "internalType": "address",
          "name": "winner",
          "type": "address"
        },
        {
          "internalType": "bool",
          "name": "isComplete",
          "type": "bool"
        },
        {
          "internalType": "bool",
          "name": "fundsLocked",
          "type": "bool"
        }
      ],
      "stateMutability": "view",
      "type": "function",
      "constant": true
    },
    {
      "inputs": [
        {
          "internalType": "address",
          "name": "",
          "type": "address"
        }
      ],
      "name": "withdrawals",
      "outputs": [
        {
          "internalType": "uint256",
          "name": "",
          "type": "uint256"
        }
      ],
      "stateMutability": "view",
      "type": "function",
      "constant": true
    },
    {
      "inputs": [
        {
          "internalType": "uint256",
          "name": "_betAmount",
          "type": "uint256"
        }
      ],
      "name": "lockOrJoinGame",
      "outputs": [],
      "stateMutability": "payable",
      "type": "function",
      "payable": true
    },
    {
      "inputs": [
        {
          "internalType": "uint256",
          "name": "_gameId",
          "type": "uint256"
        },
        {
          "internalType": "address",
          "name": "_winner",
          "type": "address"
        }
      ],
      "name": "setWinner",
      "outputs": [],
      "stateMutability": "nonpayable",
      "type": "function"
    },
    {
      "inputs": [
        {
          "internalType": "uint256",
          "name": "_gameId",
          "type": "uint256"
        }
      ],
      "name": "unlockFunds",
      "outputs": [],
      "stateMutability": "nonpayable",
      "type": "function"
    },
    {
      "inputs": [],
      "name": "claimFunds",
      "outputs": [],
      "stateMutability": "nonpayable",
      "type": "function"
    }
  ],
  "bytecode": "0x608060405260015f55348015610013575f80fd5b5061148f806100215f395ff3fe60806040526004361061006f575f3560e01c80636894c9501161004d5780636894c950146100fa5780637a9262a2146101225780639c6236831461015e578063ac307773146101865761006f565b8063117a5b90146100735780631bb412d6146100b45780632b6ecf65146100de575b5f80fd5b34801561007e575f80fd5b5061009960048036038101906100949190610e1c565b61019c565b6040516100ab96959493929190610eaf565b60405180910390f35b3480156100bf575f80fd5b506100c861024b565b6040516100d59190610f0e565b60405180910390f35b6100f860048036038101906100f39190610e1c565b610250565b005b348015610105575f80fd5b50610120600480360381019061011b9190610e1c565b6105c4565b005b34801561012d575f80fd5b5061014860048036038101906101439190610f51565b61095b565b6040516101559190610f0e565b60405180910390f35b348015610169575f80fd5b50610184600480360381019061017f9190610f7c565b610970565b005b348015610191575f80fd5b5061019a610bbf565b005b6001602052805f5260405f205f91509050805f015f9054906101000a900473ffffffffffffffffffffffffffffffffffffffff1690806001015f9054906101000a900473ffffffffffffffffffffffffffffffffffffffff1690806002015490806003015f9054906101000a900473ffffffffffffffffffffffffffffffffffffffff16908060030160149054906101000a900460ff16908060030160159054906101000a900460ff16905086565b5f5481565b803414610292576040517f08c379a000000000000000000000000000000000000000000000000000000000815260040161028990611014565b60405180910390fd5b5f61029c82610d04565b90505f81146103cb575f60015f8381526020019081526020015f2090505f73ffffffffffffffffffffffffffffffffffffffff16816001015f9054906101000a900473ffffffffffffffffffffffffffffffffffffffff1673ffffffffffffffffffffffffffffffffffffffff161461034a576040517f08c379a00000000000000000000000000000000000000000000000000000000081526004016103419061107c565b60405180910390fd5b33816001015f6101000a81548173ffffffffffffffffffffffffffffffffffffffff021916908373ffffffffffffffffffffffffffffffffffffffff1602179055507f87969bc7faf902221a147b95ceba76e011c5efb0339a0a8ee7a2bb82d9cfbbd682336040516103bd92919061109a565b60405180910390a1506105c0565b5f808154809291906103dc906110ee565b9190505590506040518060c001604052803373ffffffffffffffffffffffffffffffffffffffff1681526020015f73ffffffffffffffffffffffffffffffffffffffff1681526020018381526020015f73ffffffffffffffffffffffffffffffffffffffff1681526020015f151581526020016001151581525060015f8381526020019081526020015f205f820151815f015f6101000a81548173ffffffffffffffffffffffffffffffffffffffff021916908373ffffffffffffffffffffffffffffffffffffffff1602179055506020820151816001015f6101000a81548173ffffffffffffffffffffffffffffffffffffffff021916908373ffffffffffffffffffffffffffffffffffffffff160217905550604082015181600201556060820151816003015f6101000a81548173ffffffffffffffffffffffffffffffffffffffff021916908373ffffffffffffffffffffffffffffffffffffffff16021790555060808201518160030160146101000a81548160ff02191690831515021790555060a08201518160030160156101000a81548160ff0219169083151502179055509050507f7dfb67e9ff596fca4da65c7eedb128cd1aac553af54b3c0cb733625a2480d8bd8133846040516105b793929190611135565b60405180910390a15b5050565b5f60015f8381526020019081526020015f209050805f015f9054906101000a900473ffffffffffffffffffffffffffffffffffffffff1673ffffffffffffffffffffffffffffffffffffffff163373ffffffffffffffffffffffffffffffffffffffff1614806106825750806001015f9054906101000a900473ffffffffffffffffffffffffffffffffffffffff1673ffffffffffffffffffffffffffffffffffffffff163373ffffffffffffffffffffffffffffffffffffffff16145b6106c1576040517f08c379a00000000000000000000000000000000000000000000000000000000081526004016106b8906111da565b60405180910390fd5b8060030160149054906101000a900460ff1615610713576040517f08c379a000000000000000000000000000000000000000000000000000000000815260040161070a90611242565b60405180910390fd5b8060030160159054906101000a900460ff16610764576040517f08c379a000000000000000000000000000000000000000000000000000000000815260040161075b906112aa565b60405180910390fd5b5f73ffffffffffffffffffffffffffffffffffffffff16815f015f9054906101000a900473ffffffffffffffffffffffffffffffffffffffff1673ffffffffffffffffffffffffffffffffffffffff161461083357806002015460025f835f015f9054906101000a900473ffffffffffffffffffffffffffffffffffffffff1673ffffffffffffffffffffffffffffffffffffffff1673ffffffffffffffffffffffffffffffffffffffff1681526020019081526020015f205f82825461082b91906112c8565b925050819055505b5f73ffffffffffffffffffffffffffffffffffffffff16816001015f9054906101000a900473ffffffffffffffffffffffffffffffffffffffff1673ffffffffffffffffffffffffffffffffffffffff161461090457806002015460025f836001015f9054906101000a900473ffffffffffffffffffffffffffffffffffffffff1673ffffffffffffffffffffffffffffffffffffffff1673ffffffffffffffffffffffffffffffffffffffff1681526020019081526020015f205f8282546108fc91906112c8565b925050819055505b5f8160030160156101000a81548160ff0219169083151502179055507f11b19f94634a9624610d440e311bd23e1f5c9b6ea54b9e6ba13c0d9dbf1b96f58260405161094f9190610f0e565b60405180910390a15050565b6002602052805f5260405f205f915090505481565b5f60015f8481526020019081526020015f2090508060030160149054906101000a900460ff16156109d6576040517f08c379a00000000000000000000000000000000000000000000000000000000081526004016109cd90611242565b60405180910390fd5b805f015f9054906101000a900473ffffffffffffffffffffffffffffffffffffffff1673ffffffffffffffffffffffffffffffffffffffff163373ffffffffffffffffffffffffffffffffffffffff161480610a805750806001015f9054906101000a900473ffffffffffffffffffffffffffffffffffffffff1673ffffffffffffffffffffffffffffffffffffffff163373ffffffffffffffffffffffffffffffffffffffff16145b610abf576040517f08c379a0000000000000000000000000000000000000000000000000000000008152600401610ab69061136b565b60405180910390fd5b81816003015f6101000a81548173ffffffffffffffffffffffffffffffffffffffff021916908373ffffffffffffffffffffffffffffffffffffffff16021790555060018160030160146101000a81548160ff02191690831515021790555060028160020154610b2f9190611389565b60025f8473ffffffffffffffffffffffffffffffffffffffff1673ffffffffffffffffffffffffffffffffffffffff1681526020019081526020015f205f828254610b7a91906112c8565b925050819055507f7f40df5127524300187445e867486da572aab86769c0212e0b392bd87c4ca97f8383604051610bb292919061109a565b60405180910390a1505050565b5f60025f3373ffffffffffffffffffffffffffffffffffffffff1673ffffffffffffffffffffffffffffffffffffffff1681526020019081526020015f205490505f8111610c42576040517f08c379a0000000000000000000000000000000000000000000000000000000008152600401610c3990611414565b60405180910390fd5b5f60025f3373ffffffffffffffffffffffffffffffffffffffff1673ffffffffffffffffffffffffffffffffffffffff1681526020019081526020015f20819055503373ffffffffffffffffffffffffffffffffffffffff166108fc8290811502906040515f60405180830381858888f19350505050158015610cc7573d5f803e3d5ffd5b507fa65a8b4f7f65a1063243d7f7e9e4da00ff767599acf21549ef2548a45d1695ae3382604051610cf9929190611432565b60405180910390a150565b5f80600190505b5f54811015610ddb575f73ffffffffffffffffffffffffffffffffffffffff1660015f8381526020019081526020015f206001015f9054906101000a900473ffffffffffffffffffffffffffffffffffffffff1673ffffffffffffffffffffffffffffffffffffffff16148015610d9557508260015f8381526020019081526020015f2060020154145b8015610dc0575060015f8281526020019081526020015f2060030160149054906101000a900460ff16155b15610dce5780915050610de0565b8080600101915050610d0b565b505f90505b919050565b5f80fd5b5f819050919050565b610dfb81610de9565b8114610e05575f80fd5b50565b5f81359050610e1681610df2565b92915050565b5f60208284031215610e3157610e30610de5565b5b5f610e3e84828501610e08565b91505092915050565b5f73ffffffffffffffffffffffffffffffffffffffff82169050919050565b5f610e7082610e47565b9050919050565b610e8081610e66565b82525050565b610e8f81610de9565b82525050565b5f8115159050919050565b610ea981610e95565b82525050565b5f60c082019050610ec25f830189610e77565b610ecf6020830188610e77565b610edc6040830187610e86565b610ee96060830186610e77565b610ef66080830185610ea0565b610f0360a0830184610ea0565b979650505050505050565b5f602082019050610f215f830184610e86565b92915050565b610f3081610e66565b8114610f3a575f80fd5b50565b5f81359050610f4b81610f27565b92915050565b5f60208284031215610f6657610f65610de5565b5b5f610f7384828501610f3d565b91505092915050565b5f8060408385031215610f9257610f91610de5565b5b5f610f9f85828601610e08565b9250506020610fb085828601610f3d565b9150509250929050565b5f82825260208201905092915050565b7f496e636f72726563742062657420616d6f756e740000000000000000000000005f82015250565b5f610ffe601483610fba565b915061100982610fca565b602082019050919050565b5f6020820190508181035f83015261102b81610ff2565b9050919050565b7f47616d6520616c7265616479206861732074776f20706c6179657273000000005f82015250565b5f611066601c83610fba565b915061107182611032565b602082019050919050565b5f6020820190508181035f8301526110938161105a565b9050919050565b5f6040820190506110ad5f830185610e86565b6110ba6020830184610e77565b9392505050565b7f4e487b71000000000000000000000000000000000000000000000000000000005f52601160045260245ffd5b5f6110f882610de9565b91507fffffffffffffffffffffffffffffffffffffffffffffffffffffffffffffffff820361112a576111296110c1565b5b600182019050919050565b5f6060820190506111485f830186610e86565b6111556020830185610e77565b6111626040830184610e86565b949350505050565b7f4f6e6c792067616d65207061727469636970616e74732063616e20756e6c6f635f8201527f6b2066756e647300000000000000000000000000000000000000000000000000602082015250565b5f6111c4602783610fba565b91506111cf8261116a565b604082019050919050565b5f6020820190508181035f8301526111f1816111b8565b9050919050565b7f47616d6520697320616c726561647920636f6d706c65746500000000000000005f82015250565b5f61122c601883610fba565b9150611237826111f8565b602082019050919050565b5f6020820190508181035f83015261125981611220565b9050919050565b7f46756e647320617265206e6f74206c6f636b65640000000000000000000000005f82015250565b5f611294601483610fba565b915061129f82611260565b602082019050919050565b5f6020820190508181035f8301526112c181611288565b9050919050565b5f6112d282610de9565b91506112dd83610de9565b92508282019050808211156112f5576112f46110c1565b5b92915050565b7f4f6e6c792067616d65207061727469636970616e74732063616e2073657420745f8201527f68652077696e6e65720000000000000000000000000000000000000000000000602082015250565b5f611355602983610fba565b9150611360826112fb565b604082019050919050565b5f6020820190508181035f83015261138281611349565b9050919050565b5f61139382610de9565b915061139e83610de9565b92508282026113ac81610de9565b915082820484148315176113c3576113c26110c1565b5b5092915050565b7f4e6f2066756e647320617661696c61626c6520746f20776974686472617700005f82015250565b5f6113fe601e83610fba565b9150611409826113ca565b602082019050919050565b5f6020820190508181035f83015261142b816113f2565b9050919050565b5f6040820190506114455f830185610e77565b6114526020830184610e86565b939250505056fea264697066735822122018b53b50e80f41e255dd42621d239b0e629ec04b35681607a32d46ca8f40462564736f6c63430008180033",
  "immutableReferences": {},
  "source": "// SPDX-License-Identifier: MIT\npragma solidity >=0.8.24 <0.9.0;\n\ncontract PongGame {\n    struct Game {\n        address player1;\n        address player2;\n        uint betAmount;\n        address winner;\n        bool isComplete;\n        bool fundsLocked;\n    }\n\n    uint public gameIdCounter = 1;\n    mapping(uint => Game) public games;\n    mapping(address => uint) public withdrawals;\n\n    event GameCreated(uint gameId, address player1, uint betAmount);\n    event PlayerJoined(uint gameId, address player2);\n    event GameCompleted(uint gameId, address winner);\n    event FundsUnlocked(uint gameId);\n    event FundsClaimed(address claimant, uint amount);\n\n    // Function to lock funds as the first player or join as the second player\n    function lockOrJoinGame(uint _betAmount) external payable {\n        require(msg.value == _betAmount, \"Incorrect bet amount\");\n\n        uint gameId = findOpenGame(_betAmount);\n        if (gameId != 0) {\n            Game storage game = games[gameId];\n            require(game.player2 == address(0), \"Game already has two players\");\n            game.player2 = msg.sender;\n            emit PlayerJoined(gameId, msg.sender);\n        } else {\n            gameId = gameIdCounter++;\n            games[gameId] = Game({\n                player1: msg.sender,\n                player2: address(0),\n                betAmount: _betAmount,\n                winner: address(0),\n                isComplete: false,\n                fundsLocked: true\n            });\n            emit GameCreated(gameId, msg.sender, _betAmount);\n        }\n    }\n\n    function findOpenGame(uint _betAmount) private view returns (uint) {\n        for (uint i = 1; i < gameIdCounter; i++) {\n            if (games[i].player2 == address(0) && games[i].betAmount == _betAmount && !games[i].isComplete) {\n                return i;\n            }\n        }\n        return 0;\n    }\n\n    // Function to set the winner, should be called by the game server\n    function setWinner(uint _gameId, address _winner) external {\n        Game storage game = games[_gameId];\n        require(!game.isComplete, \"Game is already complete\");\n        require(msg.sender == game.player1 || msg.sender == game.player2, \"Only game participants can set the winner\");\n\n        game.winner = _winner;\n        game.isComplete = true;\n        withdrawals[_winner] += game.betAmount * 2;\n\n        emit GameCompleted(_gameId, _winner);\n    }\n\n    // Function to unlock funds if a game is aborted or a player leaves\n    function unlockFunds(uint _gameId) external {\n        Game storage game = games[_gameId];\n        require(msg.sender == game.player1 || msg.sender == game.player2, \"Only game participants can unlock funds\");\n        require(!game.isComplete, \"Game is already complete\");\n        require(game.fundsLocked, \"Funds are not locked\");\n\n        if (game.player1 != address(0)) {\n            withdrawals[game.player1] += game.betAmount;\n        }\n        if (game.player2 != address(0)) {\n            withdrawals[game.player2] += game.betAmount;\n        }\n\n        game.fundsLocked = false;\n        emit FundsUnlocked(_gameId);\n    }\n\n    function claimFunds() external {\n        uint amount = withdrawals[msg.sender];\n        require(amount > 0, \"No funds available to withdraw\");\n\n        withdrawals[msg.sender] = 0;\n        payable(msg.sender).transfer(amount);\n        emit FundsClaimed(msg.sender, amount);\n    }\n}\n",
  "sourcePath": "/home/vctt/projects/pong-grpc-magic/pong-contract/contracts/PongGame.sol",
  "compiler": {
    "name": "solc",
    "version": "0.8.24+commit.e11b9ed9.Emscripten.clang"
  },
  "schemaVersion": "3.4.16",
  "updatedAt": "2024-05-08T22:33:22.590Z",
  "networkType": "ethereum",
  "devdoc": {
    "kind": "dev",
    "methods": {},
    "version": 1
  },
  "userdoc": {
    "kind": "user",
    "methods": {},
    "version": 1
  }
}