{
  "contractName": "PongGame",
  "abi": [
    {
      "anonymous": false,
      "inputs": [
        {
          "indexed": false,
          "internalType": "uint256",
          "name": "gameId",
          "type": "uint256"
        },
        {
          "indexed": false,
          "internalType": "address",
          "name": "player1",
          "type": "address"
        },
        {
          "indexed": false,
          "internalType": "address",
          "name": "player2",
          "type": "address"
        }
      ],
      "name": "FundsUnlocked",
      "type": "event"
    },
    {
      "anonymous": false,
      "inputs": [
        {
          "indexed": false,
          "internalType": "uint256",
          "name": "gameId",
          "type": "uint256"
        },
        {
          "indexed": false,
          "internalType": "address",
          "name": "winner",
          "type": "address"
        }
      ],
      "name": "GameCompleted",
      "type": "event"
    },
    {
      "anonymous": false,
      "inputs": [
        {
          "indexed": false,
          "internalType": "uint256",
          "name": "gameId",
          "type": "uint256"
        },
        {
          "indexed": false,
          "internalType": "address",
          "name": "player1",
          "type": "address"
        },
        {
          "indexed": false,
          "internalType": "uint256",
          "name": "betAmount",
          "type": "uint256"
        }
      ],
      "name": "GameCreated",
      "type": "event"
    },
    {
      "anonymous": false,
      "inputs": [
        {
          "indexed": false,
          "internalType": "uint256",
          "name": "gameId",
          "type": "uint256"
        },
        {
          "indexed": false,
          "internalType": "address",
          "name": "player2",
          "type": "address"
        }
      ],
      "name": "PlayerJoined",
      "type": "event"
    },
    {
      "inputs": [],
      "name": "gameIdCounter",
      "outputs": [
        {
          "internalType": "uint256",
          "name": "",
          "type": "uint256"
        }
      ],
      "stateMutability": "view",
      "type": "function"
    },
    {
      "inputs": [
        {
          "internalType": "uint256",
          "name": "",
          "type": "uint256"
        }
      ],
      "name": "games",
      "outputs": [
        {
          "internalType": "address",
          "name": "player1",
          "type": "address"
        },
        {
          "internalType": "address",
          "name": "player2",
          "type": "address"
        },
        {
          "internalType": "uint256",
          "name": "betAmount",
          "type": "uint256"
        },
        {
          "internalType": "address",
          "name": "winner",
          "type": "address"
        },
        {
          "internalType": "bool",
          "name": "isComplete",
          "type": "bool"
        },
        {
          "internalType": "bool",
          "name": "fundsLocked",
          "type": "bool"
        }
      ],
      "stateMutability": "view",
      "type": "function"
    },
    {
      "inputs": [
        {
          "internalType": "uint256",
          "name": "_betAmount",
          "type": "uint256"
        }
      ],
      "name": "lockOrJoinGame",
      "outputs": [],
      "stateMutability": "payable",
      "type": "function"
    },
    {
      "inputs": [
        {
          "internalType": "uint256",
          "name": "_gameId",
          "type": "uint256"
        },
        {
          "internalType": "address",
          "name": "_winner",
          "type": "address"
        }
      ],
      "name": "setWinner",
      "outputs": [],
      "stateMutability": "nonpayable",
      "type": "function"
    },
    {
      "inputs": [
        {
          "internalType": "uint256",
          "name": "_gameId",
          "type": "uint256"
        }
      ],
      "name": "unlockFunds",
      "outputs": [],
      "stateMutability": "nonpayable",
      "type": "function"
    }
  ],
  "bytecode": "0x608060405260015f55348015610013575f80fd5b50611221806100215f395ff3fe608060405260043610610049575f3560e01c8063117a5b901461004d5780631bb412d61461008e5780632b6ecf65146100b85780636894c950146100d45780639c623683146100fc575b5f80fd5b348015610058575f80fd5b50610073600480360381019061006e9190610c66565b610124565b60405161008596959493929190610cf9565b60405180910390f35b348015610099575f80fd5b506100a26101d3565b6040516100af9190610d58565b60405180910390f35b6100d260048036038101906100cd9190610c66565b6101d8565b005b3480156100df575f80fd5b506100fa60048036038101906100f59190610c66565b61054c565b005b348015610107575f80fd5b50610122600480360381019061011d9190610d9b565b61090e565b005b6001602052805f5260405f205f91509050805f015f9054906101000a900473ffffffffffffffffffffffffffffffffffffffff1690806001015f9054906101000a900473ffffffffffffffffffffffffffffffffffffffff1690806002015490806003015f9054906101000a900473ffffffffffffffffffffffffffffffffffffffff16908060030160149054906101000a900460ff16908060030160159054906101000a900460ff16905086565b5f5481565b80341461021a576040517f08c379a000000000000000000000000000000000000000000000000000000000815260040161021190610e33565b60405180910390fd5b5f61022482610b4e565b90505f8114610353575f60015f8381526020019081526020015f2090505f73ffffffffffffffffffffffffffffffffffffffff16816001015f9054906101000a900473ffffffffffffffffffffffffffffffffffffffff1673ffffffffffffffffffffffffffffffffffffffff16146102d2576040517f08c379a00000000000000000000000000000000000000000000000000000000081526004016102c990610e9b565b60405180910390fd5b33816001015f6101000a81548173ffffffffffffffffffffffffffffffffffffffff021916908373ffffffffffffffffffffffffffffffffffffffff1602179055507f87969bc7faf902221a147b95ceba76e011c5efb0339a0a8ee7a2bb82d9cfbbd68233604051610345929190610eb9565b60405180910390a150610548565b5f8081548092919061036490610f0d565b9190505590506040518060c001604052803373ffffffffffffffffffffffffffffffffffffffff1681526020015f73ffffffffffffffffffffffffffffffffffffffff1681526020018381526020015f73ffffffffffffffffffffffffffffffffffffffff1681526020015f151581526020016001151581525060015f8381526020019081526020015f205f820151815f015f6101000a81548173ffffffffffffffffffffffffffffffffffffffff021916908373ffffffffffffffffffffffffffffffffffffffff1602179055506020820151816001015f6101000a81548173ffffffffffffffffffffffffffffffffffffffff021916908373ffffffffffffffffffffffffffffffffffffffff160217905550604082015181600201556060820151816003015f6101000a81548173ffffffffffffffffffffffffffffffffffffffff021916908373ffffffffffffffffffffffffffffffffffffffff16021790555060808201518160030160146101000a81548160ff02191690831515021790555060a08201518160030160156101000a81548160ff0219169083151502179055509050507f7dfb67e9ff596fca4da65c7eedb128cd1aac553af54b3c0cb733625a2480d8bd81338460405161053f93929190610f54565b60405180910390a15b5050565b5f60015f8381526020019081526020015f209050805f015f9054906101000a900473ffffffffffffffffffffffffffffffffffffffff1673ffffffffffffffffffffffffffffffffffffffff163373ffffffffffffffffffffffffffffffffffffffff16148061060a5750806001015f9054906101000a900473ffffffffffffffffffffffffffffffffffffffff1673ffffffffffffffffffffffffffffffffffffffff163373ffffffffffffffffffffffffffffffffffffffff16145b610649576040517f08c379a000000000000000000000000000000000000000000000000000000000815260040161064090610ff9565b60405180910390fd5b8060030160149054906101000a900460ff161561069b576040517f08c379a000000000000000000000000000000000000000000000000000000000815260040161069290611061565b60405180910390fd5b8060030160159054906101000a900460ff166106ec576040517f08c379a00000000000000000000000000000000000000000000000000000000081526004016106e3906110c9565b60405180910390fd5b5f73ffffffffffffffffffffffffffffffffffffffff16815f015f9054906101000a900473ffffffffffffffffffffffffffffffffffffffff1673ffffffffffffffffffffffffffffffffffffffff16146107ac57805f015f9054906101000a900473ffffffffffffffffffffffffffffffffffffffff1673ffffffffffffffffffffffffffffffffffffffff166108fc826002015490811502906040515f60405180830381858888f193505050501580156107aa573d5f803e3d5ffd5b505b5f73ffffffffffffffffffffffffffffffffffffffff16816001015f9054906101000a900473ffffffffffffffffffffffffffffffffffffffff1673ffffffffffffffffffffffffffffffffffffffff161461086e57806001015f9054906101000a900473ffffffffffffffffffffffffffffffffffffffff1673ffffffffffffffffffffffffffffffffffffffff166108fc826002015490811502906040515f60405180830381858888f1935050505015801561086c573d5f803e3d5ffd5b505b5f8160030160156101000a81548160ff0219169083151502179055507fb26745e998cfb2500d3c5012ac5af86763b7126681162572e89f1dfa23d7ffa082825f015f9054906101000a900473ffffffffffffffffffffffffffffffffffffffff16836001015f9054906101000a900473ffffffffffffffffffffffffffffffffffffffff16604051610902939291906110e7565b60405180910390a15050565b5f60015f8481526020019081526020015f2090508060030160149054906101000a900460ff1615610974576040517f08c379a000000000000000000000000000000000000000000000000000000000815260040161096b90611061565b60405180910390fd5b805f015f9054906101000a900473ffffffffffffffffffffffffffffffffffffffff1673ffffffffffffffffffffffffffffffffffffffff163373ffffffffffffffffffffffffffffffffffffffff161480610a1e5750806001015f9054906101000a900473ffffffffffffffffffffffffffffffffffffffff1673ffffffffffffffffffffffffffffffffffffffff163373ffffffffffffffffffffffffffffffffffffffff16145b610a5d576040517f08c379a0000000000000000000000000000000000000000000000000000000008152600401610a549061118c565b60405180910390fd5b81816003015f6101000a81548173ffffffffffffffffffffffffffffffffffffffff021916908373ffffffffffffffffffffffffffffffffffffffff16021790555060018160030160146101000a81548160ff0219169083151502179055508173ffffffffffffffffffffffffffffffffffffffff166108fc60028360020154610ae791906111aa565b90811502906040515f60405180830381858888f19350505050158015610b0f573d5f803e3d5ffd5b507f7f40df5127524300187445e867486da572aab86769c0212e0b392bd87c4ca97f8383604051610b41929190610eb9565b60405180910390a1505050565b5f80600190505b5f54811015610c25575f73ffffffffffffffffffffffffffffffffffffffff1660015f8381526020019081526020015f206001015f9054906101000a900473ffffffffffffffffffffffffffffffffffffffff1673ffffffffffffffffffffffffffffffffffffffff16148015610bdf57508260015f8381526020019081526020015f2060020154145b8015610c0a575060015f8281526020019081526020015f2060030160149054906101000a900460ff16155b15610c185780915050610c2a565b8080600101915050610b55565b505f90505b919050565b5f80fd5b5f819050919050565b610c4581610c33565b8114610c4f575f80fd5b50565b5f81359050610c6081610c3c565b92915050565b5f60208284031215610c7b57610c7a610c2f565b5b5f610c8884828501610c52565b91505092915050565b5f73ffffffffffffffffffffffffffffffffffffffff82169050919050565b5f610cba82610c91565b9050919050565b610cca81610cb0565b82525050565b610cd981610c33565b82525050565b5f8115159050919050565b610cf381610cdf565b82525050565b5f60c082019050610d0c5f830189610cc1565b610d196020830188610cc1565b610d266040830187610cd0565b610d336060830186610cc1565b610d406080830185610cea565b610d4d60a0830184610cea565b979650505050505050565b5f602082019050610d6b5f830184610cd0565b92915050565b610d7a81610cb0565b8114610d84575f80fd5b50565b5f81359050610d9581610d71565b92915050565b5f8060408385031215610db157610db0610c2f565b5b5f610dbe85828601610c52565b9250506020610dcf85828601610d87565b9150509250929050565b5f82825260208201905092915050565b7f496e636f72726563742062657420616d6f756e740000000000000000000000005f82015250565b5f610e1d601483610dd9565b9150610e2882610de9565b602082019050919050565b5f6020820190508181035f830152610e4a81610e11565b9050919050565b7f47616d6520616c7265616479206861732074776f20706c6179657273000000005f82015250565b5f610e85601c83610dd9565b9150610e9082610e51565b602082019050919050565b5f6020820190508181035f830152610eb281610e79565b9050919050565b5f604082019050610ecc5f830185610cd0565b610ed96020830184610cc1565b9392505050565b7f4e487b71000000000000000000000000000000000000000000000000000000005f52601160045260245ffd5b5f610f1782610c33565b91507fffffffffffffffffffffffffffffffffffffffffffffffffffffffffffffffff8203610f4957610f48610ee0565b5b600182019050919050565b5f606082019050610f675f830186610cd0565b610f746020830185610cc1565b610f816040830184610cd0565b949350505050565b7f4f6e6c792067616d65207061727469636970616e74732063616e20756e6c6f635f8201527f6b2066756e647300000000000000000000000000000000000000000000000000602082015250565b5f610fe3602783610dd9565b9150610fee82610f89565b604082019050919050565b5f6020820190508181035f83015261101081610fd7565b9050919050565b7f47616d6520697320616c726561647920636f6d706c65746500000000000000005f82015250565b5f61104b601883610dd9565b915061105682611017565b602082019050919050565b5f6020820190508181035f8301526110788161103f565b9050919050565b7f46756e647320617265206e6f74206c6f636b65640000000000000000000000005f82015250565b5f6110b3601483610dd9565b91506110be8261107f565b602082019050919050565b5f6020820190508181035f8301526110e0816110a7565b9050919050565b5f6060820190506110fa5f830186610cd0565b6111076020830185610cc1565b6111146040830184610cc1565b949350505050565b7f4f6e6c792067616d65207061727469636970616e74732063616e2073657420745f8201527f68652077696e6e65720000000000000000000000000000000000000000000000602082015250565b5f611176602983610dd9565b91506111818261111c565b604082019050919050565b5f6020820190508181035f8301526111a38161116a565b9050919050565b5f6111b482610c33565b91506111bf83610c33565b92508282026111cd81610c33565b915082820484148315176111e4576111e3610ee0565b5b509291505056fea26469706673582212206a309e687bfba0280ac44814868c343f299dd0f8c228c06bca44396a40c639fd64736f6c63430008180033",
  "immutableReferences": {},
  "source": "// SPDX-License-Identifier: MIT\npragma solidity >=0.8.24 <0.9.0;\n\ncontract PongGame {\n    struct Game {\n        address player1;\n        address player2;\n        uint betAmount;\n        address winner;\n        bool isComplete;\n        bool fundsLocked;\n    }\n\n    uint public gameIdCounter = 1;\n    mapping(uint => Game) public games;\n\n    event GameCreated(uint gameId, address player1, uint betAmount);\n    event PlayerJoined(uint gameId, address player2);\n    event GameCompleted(uint gameId, address winner);\n    event FundsUnlocked(uint gameId, address player1, address player2);\n\n    // Function to lock funds as the first player or join as the second player\n    function lockOrJoinGame(uint _betAmount) external payable {\n        require(msg.value == _betAmount, \"Incorrect bet amount\");\n\n        // Search for an existing game that needs a second player\n        uint gameId = findOpenGame(_betAmount);\n        if (gameId != 0) {\n            // Join the game\n            Game storage game = games[gameId];\n            require(game.player2 == address(0), \"Game already has two players\");\n            game.player2 = msg.sender;\n            emit PlayerJoined(gameId, msg.sender);\n        } else {\n            // No open game found, create a new game\n            gameId = gameIdCounter++;\n            games[gameId] = Game({\n                player1: msg.sender,\n                player2: address(0),\n                betAmount: _betAmount,\n                winner: address(0),\n                isComplete: false,\n                fundsLocked: true\n            });\n            emit GameCreated(gameId, msg.sender, _betAmount);\n        }\n    }\n\n    // Helper function to find an existing game with only one player and matching bet amount\n    function findOpenGame(uint _betAmount) private view returns (uint) {\n        for (uint i = 1; i < gameIdCounter; i++) {\n            if (games[i].player2 == address(0) && games[i].betAmount == _betAmount && !games[i].isComplete) {\n                return i;\n            }\n        }\n        return 0; // No open game found\n    }\n\n    // Function to set the winner, should be called by the game server\n    function setWinner(uint _gameId, address _winner) external {\n        Game storage game = games[_gameId];\n        require(!game.isComplete, \"Game is already complete\");\n        require(msg.sender == game.player1 || msg.sender == game.player2, \"Only game participants can set the winner\");\n\n        game.winner = _winner;\n        game.isComplete = true;\n        payable(_winner).transfer(game.betAmount * 2); // Send the total bet amount to the winner\n\n        emit GameCompleted(_gameId, _winner);\n    }\n\n    // Function to unlock funds if a game is aborted or a player leaves\n    function unlockFunds(uint _gameId) external {\n        Game storage game = games[_gameId];\n        require(msg.sender == game.player1 || msg.sender == game.player2, \"Only game participants can unlock funds\");\n        require(!game.isComplete, \"Game is already complete\");\n        require(game.fundsLocked, \"Funds are not locked\");\n\n        // Refund each player their bet amount\n        if (game.player1 != address(0)) {\n            payable(game.player1).transfer(game.betAmount);\n        }\n        if (game.player2 != address(0)) {\n            payable(game.player2).transfer(game.betAmount);\n        }\n\n        game.fundsLocked = false; // Mark funds as unlocked\n        emit FundsUnlocked(_gameId, game.player1, game.player2);\n    }\n}\n",
  "sourcePath": "/home/vctt/projects/pong-grpc-eth/pong-contract/contracts/PongGame.sol",
  "compiler": {
    "name": "solc",
    "version": "0.8.24+commit.e11b9ed9.Emscripten.clang"
  },
  "schemaVersion": "3.4.16",
  "updatedAt": "2024-05-01T02:52:57.705Z",
  "devdoc": {
    "kind": "dev",
    "methods": {},
    "version": 1
  },
  "userdoc": {
    "kind": "user",
    "methods": {},
    "version": 1
  }
}